{
  "_format": "hh-sol-artifact-1",
  "contractName": "Azuki",
  "sourceName": "contracts/Azuki.sol",
  "abi": [
    {
      "inputs": [],
      "stateMutability": "nonpayable",
      "type": "constructor"
    },
    {
      "anonymous": false,
      "inputs": [
        {
          "indexed": true,
          "internalType": "address",
          "name": "owner",
          "type": "address"
        },
        {
          "indexed": true,
          "internalType": "address",
          "name": "approved",
          "type": "address"
        },
        {
          "indexed": true,
          "internalType": "uint256",
          "name": "tokenId",
          "type": "uint256"
        }
      ],
      "name": "Approval",
      "type": "event"
    },
    {
      "anonymous": false,
      "inputs": [
        {
          "indexed": true,
          "internalType": "address",
          "name": "owner",
          "type": "address"
        },
        {
          "indexed": true,
          "internalType": "address",
          "name": "operator",
          "type": "address"
        },
        {
          "indexed": false,
          "internalType": "bool",
          "name": "approved",
          "type": "bool"
        }
      ],
      "name": "ApprovalForAll",
      "type": "event"
    },
    {
      "anonymous": false,
      "inputs": [
        {
          "indexed": true,
          "internalType": "address",
          "name": "previousOwner",
          "type": "address"
        },
        {
          "indexed": true,
          "internalType": "address",
          "name": "newOwner",
          "type": "address"
        }
      ],
      "name": "OwnershipTransferred",
      "type": "event"
    },
    {
      "anonymous": false,
      "inputs": [
        {
          "indexed": true,
          "internalType": "address",
          "name": "from",
          "type": "address"
        },
        {
          "indexed": true,
          "internalType": "address",
          "name": "to",
          "type": "address"
        },
        {
          "indexed": true,
          "internalType": "uint256",
          "name": "tokenId",
          "type": "uint256"
        }
      ],
      "name": "Transfer",
      "type": "event"
    },
    {
      "inputs": [
        {
          "internalType": "address",
          "name": "to",
          "type": "address"
        },
        {
          "internalType": "uint256",
          "name": "tokenId",
          "type": "uint256"
        }
      ],
      "name": "approve",
      "outputs": [],
      "stateMutability": "nonpayable",
      "type": "function"
    },
    {
      "inputs": [
        {
          "internalType": "address",
          "name": "owner",
          "type": "address"
        }
      ],
      "name": "balanceOf",
      "outputs": [
        {
          "internalType": "uint256",
          "name": "",
          "type": "uint256"
        }
      ],
      "stateMutability": "view",
      "type": "function"
    },
    {
      "inputs": [],
      "name": "count",
      "outputs": [
        {
          "internalType": "uint256",
          "name": "",
          "type": "uint256"
        }
      ],
      "stateMutability": "view",
      "type": "function"
    },
    {
      "inputs": [
        {
          "internalType": "uint256",
          "name": "tokenId",
          "type": "uint256"
        }
      ],
      "name": "getApproved",
      "outputs": [
        {
          "internalType": "address",
          "name": "",
          "type": "address"
        }
      ],
      "stateMutability": "view",
      "type": "function"
    },
    {
      "inputs": [
        {
          "internalType": "address",
          "name": "owner",
          "type": "address"
        },
        {
          "internalType": "address",
          "name": "operator",
          "type": "address"
        }
      ],
      "name": "isApprovedForAll",
      "outputs": [
        {
          "internalType": "bool",
          "name": "",
          "type": "bool"
        }
      ],
      "stateMutability": "view",
      "type": "function"
    },
    {
      "inputs": [
        {
          "internalType": "string",
          "name": "uri",
          "type": "string"
        }
      ],
      "name": "isContentOwned",
      "outputs": [
        {
          "internalType": "bool",
          "name": "",
          "type": "bool"
        }
      ],
      "stateMutability": "view",
      "type": "function"
    },
    {
      "inputs": [],
      "name": "name",
      "outputs": [
        {
          "internalType": "string",
          "name": "",
          "type": "string"
        }
      ],
      "stateMutability": "view",
      "type": "function"
    },
    {
      "inputs": [],
      "name": "owner",
      "outputs": [
        {
          "internalType": "address",
          "name": "",
          "type": "address"
        }
      ],
      "stateMutability": "view",
      "type": "function"
    },
    {
      "inputs": [
        {
          "internalType": "uint256",
          "name": "tokenId",
          "type": "uint256"
        }
      ],
      "name": "ownerOf",
      "outputs": [
        {
          "internalType": "address",
          "name": "",
          "type": "address"
        }
      ],
      "stateMutability": "view",
      "type": "function"
    },
    {
      "inputs": [
        {
          "internalType": "address",
          "name": "recipient",
          "type": "address"
        },
        {
          "internalType": "string",
          "name": "metadataURI",
          "type": "string"
        }
      ],
      "name": "payToMint",
      "outputs": [
        {
          "internalType": "uint256",
          "name": "",
          "type": "uint256"
        }
      ],
      "stateMutability": "payable",
      "type": "function"
    },
    {
      "inputs": [],
      "name": "renounceOwnership",
      "outputs": [],
      "stateMutability": "nonpayable",
      "type": "function"
    },
    {
      "inputs": [
        {
          "internalType": "address",
          "name": "to",
          "type": "address"
        },
        {
          "internalType": "string",
          "name": "uri",
          "type": "string"
        }
      ],
      "name": "safeMint",
      "outputs": [],
      "stateMutability": "nonpayable",
      "type": "function"
    },
    {
      "inputs": [
        {
          "internalType": "address",
          "name": "from",
          "type": "address"
        },
        {
          "internalType": "address",
          "name": "to",
          "type": "address"
        },
        {
          "internalType": "uint256",
          "name": "tokenId",
          "type": "uint256"
        }
      ],
      "name": "safeTransferFrom",
      "outputs": [],
      "stateMutability": "nonpayable",
      "type": "function"
    },
    {
      "inputs": [
        {
          "internalType": "address",
          "name": "from",
          "type": "address"
        },
        {
          "internalType": "address",
          "name": "to",
          "type": "address"
        },
        {
          "internalType": "uint256",
          "name": "tokenId",
          "type": "uint256"
        },
        {
          "internalType": "bytes",
          "name": "data",
          "type": "bytes"
        }
      ],
      "name": "safeTransferFrom",
      "outputs": [],
      "stateMutability": "nonpayable",
      "type": "function"
    },
    {
      "inputs": [
        {
          "internalType": "address",
          "name": "operator",
          "type": "address"
        },
        {
          "internalType": "bool",
          "name": "approved",
          "type": "bool"
        }
      ],
      "name": "setApprovalForAll",
      "outputs": [],
      "stateMutability": "nonpayable",
      "type": "function"
    },
    {
      "inputs": [
        {
          "internalType": "bytes4",
          "name": "interfaceId",
          "type": "bytes4"
        }
      ],
      "name": "supportsInterface",
      "outputs": [
        {
          "internalType": "bool",
          "name": "",
          "type": "bool"
        }
      ],
      "stateMutability": "view",
      "type": "function"
    },
    {
      "inputs": [],
      "name": "symbol",
      "outputs": [
        {
          "internalType": "string",
          "name": "",
          "type": "string"
        }
      ],
      "stateMutability": "view",
      "type": "function"
    },
    {
      "inputs": [
        {
          "internalType": "uint256",
          "name": "tokenId",
          "type": "uint256"
        }
      ],
      "name": "tokenURI",
      "outputs": [
        {
          "internalType": "string",
          "name": "",
          "type": "string"
        }
      ],
      "stateMutability": "view",
      "type": "function"
    },
    {
      "inputs": [
        {
          "internalType": "address",
          "name": "from",
          "type": "address"
        },
        {
          "internalType": "address",
          "name": "to",
          "type": "address"
        },
        {
          "internalType": "uint256",
          "name": "tokenId",
          "type": "uint256"
        }
      ],
      "name": "transferFrom",
      "outputs": [],
      "stateMutability": "nonpayable",
      "type": "function"
    },
    {
      "inputs": [
        {
          "internalType": "address",
          "name": "newOwner",
          "type": "address"
        }
      ],
      "name": "transferOwnership",
      "outputs": [],
      "stateMutability": "nonpayable",
      "type": "function"
    }
  ],
  "bytecode": "0x60806040523480156200001157600080fd5b506040518060400160405280600581526020017f417a756b690000000000000000000000000000000000000000000000000000008152506040518060400160405280600381526020017f415a4b0000000000000000000000000000000000000000000000000000000000815250816000908051906020019062000096929190620001a6565b508060019080519060200190620000af929190620001a6565b505050620000d2620000c6620000d860201b60201c565b620000e060201b60201c565b620002bb565b600033905090565b6000600760009054906101000a900473ffffffffffffffffffffffffffffffffffffffff16905081600760006101000a81548173ffffffffffffffffffffffffffffffffffffffff021916908373ffffffffffffffffffffffffffffffffffffffff1602179055508173ffffffffffffffffffffffffffffffffffffffff168173ffffffffffffffffffffffffffffffffffffffff167f8be0079c531659141344cd1fd0a4f28419497f9722a3daafe3b4186f6b6457e060405160405180910390a35050565b828054620001b49062000256565b90600052602060002090601f016020900481019282620001d8576000855562000224565b82601f10620001f357805160ff191683800117855562000224565b8280016001018555821562000224579182015b828111156200022357825182559160200191906001019062000206565b5b50905062000233919062000237565b5090565b5b808211156200025257600081600090555060010162000238565b5090565b600060028204905060018216806200026f57607f821691505b602082108114156200028657620002856200028c565b5b50919050565b7f4e487b7100000000000000000000000000000000000000000000000000000000600052602260045260246000fd5b61335d80620002cb6000396000f3fe60806040526004361061011f5760003560e01c8063715018a6116100a0578063b88d4fde11610064578063b88d4fde146103ec578063c87b56dd14610415578063d204c45e14610452578063e985e9c51461047b578063f2fde38b146104b85761011f565b8063715018a6146103195780638da5cb5b1461033057806395d89b411461035b5780639f1cabc614610386578063a22cb465146103c35761011f565b806323b872dd116100e757806323b872dd1461021d57806342842e0e14610246578063615fd9e21461026f5780636352211e1461029f57806370a08231146102dc5761011f565b806301ffc9a71461012457806306661abd1461016157806306fdde031461018c578063081812fc146101b7578063095ea7b3146101f4575b600080fd5b34801561013057600080fd5b5061014b60048036038101906101469190612524565b6104e1565b6040516101589190612982565b60405180910390f35b34801561016d57600080fd5b506101766105c3565b6040516101839190612bbf565b60405180910390f35b34801561019857600080fd5b506101a16105d4565b6040516101ae919061299d565b60405180910390f35b3480156101c357600080fd5b506101de60048036038101906101d991906125b7565b610666565b6040516101eb919061291b565b60405180910390f35b34801561020057600080fd5b5061021b600480360381019061021691906124e8565b6106ac565b005b34801561022957600080fd5b50610244600480360381019061023f919061238e565b6107c4565b005b34801561025257600080fd5b5061026d6004803603810190610268919061238e565b610824565b005b61028960048036038101906102849190612494565b610844565b6040516102969190612bbf565b60405180910390f35b3480156102ab57600080fd5b506102c660048036038101906102c191906125b7565b610970565b6040516102d3919061291b565b60405180910390f35b3480156102e857600080fd5b5061030360048036038101906102fe9190612329565b6109f7565b6040516103109190612bbf565b60405180910390f35b34801561032557600080fd5b5061032e610aaf565b005b34801561033c57600080fd5b50610345610ac3565b604051610352919061291b565b60405180910390f35b34801561036757600080fd5b50610370610aed565b60405161037d919061299d565b60405180910390f35b34801561039257600080fd5b506103ad60048036038101906103a89190612576565b610b7f565b6040516103ba9190612982565b60405180910390f35b3480156103cf57600080fd5b506103ea60048036038101906103e59190612458565b610bba565b005b3480156103f857600080fd5b50610413600480360381019061040e91906123dd565b610bd0565b005b34801561042157600080fd5b5061043c600480360381019061043791906125b7565b610c32565b604051610449919061299d565b60405180910390f35b34801561045e57600080fd5b5061047960048036038101906104749190612494565b610c44565b005b34801561048757600080fd5b506104a2600480360381019061049d9190612352565b610c7d565b6040516104af9190612982565b60405180910390f35b3480156104c457600080fd5b506104df60048036038101906104da9190612329565b610d11565b005b60007f80ac58cd000000000000000000000000000000000000000000000000000000007bffffffffffffffffffffffffffffffffffffffffffffffffffffffff1916827bffffffffffffffffffffffffffffffffffffffffffffffffffffffff191614806105ac57507f5b5e139f000000000000000000000000000000000000000000000000000000007bffffffffffffffffffffffffffffffffffffffffffffffffffffffff1916827bffffffffffffffffffffffffffffffffffffffffffffffffffffffff1916145b806105bc57506105bb82610d95565b5b9050919050565b60006105cf6008610dff565b905090565b6060600080546105e390612de4565b80601f016020809104026020016040519081016040528092919081815260200182805461060f90612de4565b801561065c5780601f106106315761010080835404028352916020019161065c565b820191906000526020600020905b81548152906001019060200180831161063f57829003601f168201915b5050505050905090565b600061067182610e0d565b6004600083815260200190815260200160002060009054906101000a900473ffffffffffffffffffffffffffffffffffffffff169050919050565b60006106b782610970565b90508073ffffffffffffffffffffffffffffffffffffffff168373ffffffffffffffffffffffffffffffffffffffff161415610728576040517f08c379a000000000000000000000000000000000000000000000000000000000815260040161071f90612b7f565b60405180910390fd5b8073ffffffffffffffffffffffffffffffffffffffff16610747610e58565b73ffffffffffffffffffffffffffffffffffffffff161480610776575061077581610770610e58565b610c7d565b5b6107b5576040517f08c379a00000000000000000000000000000000000000000000000000000000081526004016107ac90612b9f565b60405180910390fd5b6107bf8383610e60565b505050565b6107d56107cf610e58565b82610f19565b610814576040517f08c379a000000000000000000000000000000000000000000000000000000000815260040161080b906129df565b60405180910390fd5b61081f838383610fae565b505050565b61083f83838360405180602001604052806000815250610bd0565b505050565b6000600160098360405161085891906128e0565b908152602001604051809103902060009054906101000a900460ff1660ff1614156108b8576040517f08c379a00000000000000000000000000000000000000000000000000000000081526004016108af90612b3f565b60405180910390fd5b66b1a2bc2ec50000341015610902576040517f08c379a00000000000000000000000000000000000000000000000000000000081526004016108f9906129bf565b60405180910390fd5b600061090e6008610dff565b905061091a60086112a8565b600160098460405161092c91906128e0565b908152602001604051809103902060006101000a81548160ff021916908360ff16021790555061095c84826112be565b61096681846114dc565b8091505092915050565b60008061097c83611550565b9050600073ffffffffffffffffffffffffffffffffffffffff168173ffffffffffffffffffffffffffffffffffffffff1614156109ee576040517f08c379a00000000000000000000000000000000000000000000000000000000081526004016109e590612b5f565b60405180910390fd5b80915050919050565b60008073ffffffffffffffffffffffffffffffffffffffff168273ffffffffffffffffffffffffffffffffffffffff161415610a68576040517f08c379a0000000000000000000000000000000000000000000000000000000008152600401610a5f90612abf565b60405180910390fd5b600360008373ffffffffffffffffffffffffffffffffffffffff1673ffffffffffffffffffffffffffffffffffffffff168152602001908152602001600020549050919050565b610ab761158d565b610ac1600061160b565b565b6000600760009054906101000a900473ffffffffffffffffffffffffffffffffffffffff16905090565b606060018054610afc90612de4565b80601f0160208091040260200160405190810160405280929190818152602001828054610b2890612de4565b8015610b755780601f10610b4a57610100808354040283529160200191610b75565b820191906000526020600020905b815481529060010190602001808311610b5857829003601f168201915b5050505050905090565b60006001600983604051610b9391906128e0565b908152602001604051809103902060009054906101000a900460ff1660ff16149050919050565b610bcc610bc5610e58565b83836116d1565b5050565b610be1610bdb610e58565b83610f19565b610c20576040517f08c379a0000000000000000000000000000000000000000000000000000000008152600401610c17906129df565b60405180910390fd5b610c2c8484848461183e565b50505050565b6060610c3d8261189a565b9050919050565b610c4c61158d565b6000610c586008610dff565b9050610c6460086112a8565b610c6e83826119ad565b610c7881836114dc565b505050565b6000600560008473ffffffffffffffffffffffffffffffffffffffff1673ffffffffffffffffffffffffffffffffffffffff16815260200190815260200160002060008373ffffffffffffffffffffffffffffffffffffffff1673ffffffffffffffffffffffffffffffffffffffff16815260200190815260200160002060009054906101000a900460ff16905092915050565b610d1961158d565b600073ffffffffffffffffffffffffffffffffffffffff168173ffffffffffffffffffffffffffffffffffffffff161415610d89576040517f08c379a0000000000000000000000000000000000000000000000000000000008152600401610d8090612a1f565b60405180910390fd5b610d928161160b565b50565b60007f01ffc9a7000000000000000000000000000000000000000000000000000000007bffffffffffffffffffffffffffffffffffffffffffffffffffffffff1916827bffffffffffffffffffffffffffffffffffffffffffffffffffffffff1916149050919050565b600081600001549050919050565b610e16816119cb565b610e55576040517f08c379a0000000000000000000000000000000000000000000000000000000008152600401610e4c90612b5f565b60405180910390fd5b50565b600033905090565b816004600083815260200190815260200160002060006101000a81548173ffffffffffffffffffffffffffffffffffffffff021916908373ffffffffffffffffffffffffffffffffffffffff160217905550808273ffffffffffffffffffffffffffffffffffffffff16610ed383610970565b73ffffffffffffffffffffffffffffffffffffffff167f8c5be1e5ebec7d5bd14f71427d1e84f3dd0314c0f7b2291e5b200ac8c7c3b92560405160405180910390a45050565b600080610f2583610970565b90508073ffffffffffffffffffffffffffffffffffffffff168473ffffffffffffffffffffffffffffffffffffffff161480610f675750610f668185610c7d565b5b80610fa557508373ffffffffffffffffffffffffffffffffffffffff16610f8d84610666565b73ffffffffffffffffffffffffffffffffffffffff16145b91505092915050565b8273ffffffffffffffffffffffffffffffffffffffff16610fce82610970565b73ffffffffffffffffffffffffffffffffffffffff1614611024576040517f08c379a000000000000000000000000000000000000000000000000000000000815260040161101b90612a3f565b60405180910390fd5b600073ffffffffffffffffffffffffffffffffffffffff168273ffffffffffffffffffffffffffffffffffffffff161415611094576040517f08c379a000000000000000000000000000000000000000000000000000000000815260040161108b90612a7f565b60405180910390fd5b6110a18383836001611a0c565b8273ffffffffffffffffffffffffffffffffffffffff166110c182610970565b73ffffffffffffffffffffffffffffffffffffffff1614611117576040517f08c379a000000000000000000000000000000000000000000000000000000000815260040161110e90612a3f565b60405180910390fd5b6004600082815260200190815260200160002060006101000a81549073ffffffffffffffffffffffffffffffffffffffff02191690556001600360008573ffffffffffffffffffffffffffffffffffffffff1673ffffffffffffffffffffffffffffffffffffffff168152602001908152602001600020600082825403925050819055506001600360008473ffffffffffffffffffffffffffffffffffffffff1673ffffffffffffffffffffffffffffffffffffffff16815260200190815260200160002060008282540192505081905550816002600083815260200190815260200160002060006101000a81548173ffffffffffffffffffffffffffffffffffffffff021916908373ffffffffffffffffffffffffffffffffffffffff160217905550808273ffffffffffffffffffffffffffffffffffffffff168473ffffffffffffffffffffffffffffffffffffffff167fddf252ad1be2c89b69c2b068fc378daa952ba7f163c4a11628f55a4df523b3ef60405160405180910390a46112a38383836001611b32565b505050565b6001816000016000828254019250508190555050565b600073ffffffffffffffffffffffffffffffffffffffff168273ffffffffffffffffffffffffffffffffffffffff16141561132e576040517f08c379a000000000000000000000000000000000000000000000000000000000815260040161132590612aff565b60405180910390fd5b611337816119cb565b15611377576040517f08c379a000000000000000000000000000000000000000000000000000000000815260040161136e90612a5f565b60405180910390fd5b611385600083836001611a0c565b61138e816119cb565b156113ce576040517f08c379a00000000000000000000000000000000000000000000000000000000081526004016113c590612a5f565b60405180910390fd5b6001600360008473ffffffffffffffffffffffffffffffffffffffff1673ffffffffffffffffffffffffffffffffffffffff16815260200190815260200160002060008282540192505081905550816002600083815260200190815260200160002060006101000a81548173ffffffffffffffffffffffffffffffffffffffff021916908373ffffffffffffffffffffffffffffffffffffffff160217905550808273ffffffffffffffffffffffffffffffffffffffff16600073ffffffffffffffffffffffffffffffffffffffff167fddf252ad1be2c89b69c2b068fc378daa952ba7f163c4a11628f55a4df523b3ef60405160405180910390a46114d8600083836001611b32565b5050565b6114e5826119cb565b611524576040517f08c379a000000000000000000000000000000000000000000000000000000000815260040161151b90612adf565b60405180910390fd5b8060066000848152602001908152602001600020908051906020019061154b92919061214d565b505050565b60006002600083815260200190815260200160002060009054906101000a900473ffffffffffffffffffffffffffffffffffffffff169050919050565b611595610e58565b73ffffffffffffffffffffffffffffffffffffffff166115b3610ac3565b73ffffffffffffffffffffffffffffffffffffffff1614611609576040517f08c379a000000000000000000000000000000000000000000000000000000000815260040161160090612b1f565b60405180910390fd5b565b6000600760009054906101000a900473ffffffffffffffffffffffffffffffffffffffff16905081600760006101000a81548173ffffffffffffffffffffffffffffffffffffffff021916908373ffffffffffffffffffffffffffffffffffffffff1602179055508173ffffffffffffffffffffffffffffffffffffffff168173ffffffffffffffffffffffffffffffffffffffff167f8be0079c531659141344cd1fd0a4f28419497f9722a3daafe3b4186f6b6457e060405160405180910390a35050565b8173ffffffffffffffffffffffffffffffffffffffff168373ffffffffffffffffffffffffffffffffffffffff161415611740576040517f08c379a000000000000000000000000000000000000000000000000000000000815260040161173790612a9f565b60405180910390fd5b80600560008573ffffffffffffffffffffffffffffffffffffffff1673ffffffffffffffffffffffffffffffffffffffff16815260200190815260200160002060008473ffffffffffffffffffffffffffffffffffffffff1673ffffffffffffffffffffffffffffffffffffffff16815260200190815260200160002060006101000a81548160ff0219169083151502179055508173ffffffffffffffffffffffffffffffffffffffff168373ffffffffffffffffffffffffffffffffffffffff167f17307eab39ab6107e8899845ad3d59bd9653f200f220920489ca2b5937696c31836040516118319190612982565b60405180910390a3505050565b611849848484610fae565b61185584848484611b38565b611894576040517f08c379a000000000000000000000000000000000000000000000000000000000815260040161188b906129ff565b60405180910390fd5b50505050565b60606118a582610e0d565b60006006600084815260200190815260200160002080546118c590612de4565b80601f01602080910402602001604051908101604052809291908181526020018280546118f190612de4565b801561193e5780601f106119135761010080835404028352916020019161193e565b820191906000526020600020905b81548152906001019060200180831161192157829003601f168201915b50505050509050600061194f611ccf565b90506000815114156119655781925050506119a8565b60008251111561199a5780826040516020016119829291906128f7565b604051602081830303815290604052925050506119a8565b6119a384611d0c565b925050505b919050565b6119c7828260405180602001604052806000815250611d74565b5050565b60008073ffffffffffffffffffffffffffffffffffffffff166119ed83611550565b73ffffffffffffffffffffffffffffffffffffffff1614159050919050565b6001811115611b2c57600073ffffffffffffffffffffffffffffffffffffffff168473ffffffffffffffffffffffffffffffffffffffff1614611aa05780600360008673ffffffffffffffffffffffffffffffffffffffff1673ffffffffffffffffffffffffffffffffffffffff1681526020019081526020016000206000828254611a989190612cfa565b925050819055505b600073ffffffffffffffffffffffffffffffffffffffff168373ffffffffffffffffffffffffffffffffffffffff1614611b2b5780600360008573ffffffffffffffffffffffffffffffffffffffff1673ffffffffffffffffffffffffffffffffffffffff1681526020019081526020016000206000828254611b239190612ca4565b925050819055505b5b50505050565b50505050565b6000611b598473ffffffffffffffffffffffffffffffffffffffff16611dcf565b15611cc2578373ffffffffffffffffffffffffffffffffffffffff1663150b7a02611b82610e58565b8786866040518563ffffffff1660e01b8152600401611ba49493929190612936565b602060405180830381600087803b158015611bbe57600080fd5b505af1925050508015611bef57506040513d601f19601f82011682018060405250810190611bec919061254d565b60015b611c72573d8060008114611c1f576040519150601f19603f3d011682016040523d82523d6000602084013e611c24565b606091505b50600081511415611c6a576040517f08c379a0000000000000000000000000000000000000000000000000000000008152600401611c61906129ff565b60405180910390fd5b805181602001fd5b63150b7a0260e01b7bffffffffffffffffffffffffffffffffffffffffffffffffffffffff1916817bffffffffffffffffffffffffffffffffffffffffffffffffffffffff191614915050611cc7565b600190505b949350505050565b60606040518060400160405280600781526020017f697066733a2f2f00000000000000000000000000000000000000000000000000815250905090565b6060611d1782610e0d565b6000611d21611ccf565b90506000815111611d415760405180602001604052806000815250611d6c565b80611d4b84611df2565b604051602001611d5c9291906128f7565b6040516020818303038152906040525b915050919050565b611d7e83836112be565b611d8b6000848484611b38565b611dca576040517f08c379a0000000000000000000000000000000000000000000000000000000008152600401611dc1906129ff565b60405180910390fd5b505050565b6000808273ffffffffffffffffffffffffffffffffffffffff163b119050919050565b606060006001611e0184611f16565b01905060008167ffffffffffffffff811115611e46577f4e487b7100000000000000000000000000000000000000000000000000000000600052604160045260246000fd5b6040519080825280601f01601f191660200182016040528015611e785781602001600182028036833780820191505090505b509050600082602001820190505b600115611f0b578080600190039150507f3031323334353637383961626364656600000000000000000000000000000000600a86061a8153600a8581611ef5577f4e487b7100000000000000000000000000000000000000000000000000000000600052601260045260246000fd5b0494506000851415611f0657611f0b565b611e86565b819350505050919050565b600080600090507a184f03e93ff9f4daa797ed6e38ed64bf6a1f0100000000000000008310611f9a577a184f03e93ff9f4daa797ed6e38ed64bf6a1f0100000000000000008381611f90577f4e487b7100000000000000000000000000000000000000000000000000000000600052601260045260246000fd5b0492506040810190505b6d04ee2d6d415b85acef81000000008310611ffd576d04ee2d6d415b85acef81000000008381611ff3577f4e487b7100000000000000000000000000000000000000000000000000000000600052601260045260246000fd5b0492506020810190505b662386f26fc10000831061205257662386f26fc100008381612048577f4e487b7100000000000000000000000000000000000000000000000000000000600052601260045260246000fd5b0492506010810190505b6305f5e10083106120a1576305f5e1008381612097577f4e487b7100000000000000000000000000000000000000000000000000000000600052601260045260246000fd5b0492506008810190505b61271083106120ec5761271083816120e2577f4e487b7100000000000000000000000000000000000000000000000000000000600052601260045260246000fd5b0492506004810190505b60648310612135576064838161212b577f4e487b7100000000000000000000000000000000000000000000000000000000600052601260045260246000fd5b0492506002810190505b600a8310612144576001810190505b80915050919050565b82805461215990612de4565b90600052602060002090601f01602090048101928261217b57600085556121c2565b82601f1061219457805160ff19168380011785556121c2565b828001600101855582156121c2579182015b828111156121c15782518255916020019190600101906121a6565b5b5090506121cf91906121d3565b5090565b5b808211156121ec5760008160009055506001016121d4565b5090565b60006122036121fe84612bff565b612bda565b90508281526020810184848401111561221b57600080fd5b612226848285612da2565b509392505050565b600061224161223c84612c30565b612bda565b90508281526020810184848401111561225957600080fd5b612264848285612da2565b509392505050565b60008135905061227b816132cb565b92915050565b600081359050612290816132e2565b92915050565b6000813590506122a5816132f9565b92915050565b6000815190506122ba816132f9565b92915050565b600082601f8301126122d157600080fd5b81356122e18482602086016121f0565b91505092915050565b600082601f8301126122fb57600080fd5b813561230b84826020860161222e565b91505092915050565b60008135905061232381613310565b92915050565b60006020828403121561233b57600080fd5b60006123498482850161226c565b91505092915050565b6000806040838503121561236557600080fd5b60006123738582860161226c565b92505060206123848582860161226c565b9150509250929050565b6000806000606084860312156123a357600080fd5b60006123b18682870161226c565b93505060206123c28682870161226c565b92505060406123d386828701612314565b9150509250925092565b600080600080608085870312156123f357600080fd5b60006124018782880161226c565b94505060206124128782880161226c565b935050604061242387828801612314565b925050606085013567ffffffffffffffff81111561244057600080fd5b61244c878288016122c0565b91505092959194509250565b6000806040838503121561246b57600080fd5b60006124798582860161226c565b925050602061248a85828601612281565b9150509250929050565b600080604083850312156124a757600080fd5b60006124b58582860161226c565b925050602083013567ffffffffffffffff8111156124d257600080fd5b6124de858286016122ea565b9150509250929050565b600080604083850312156124fb57600080fd5b60006125098582860161226c565b925050602061251a85828601612314565b9150509250929050565b60006020828403121561253657600080fd5b600061254484828501612296565b91505092915050565b60006020828403121561255f57600080fd5b600061256d848285016122ab565b91505092915050565b60006020828403121561258857600080fd5b600082013567ffffffffffffffff8111156125a257600080fd5b6125ae848285016122ea565b91505092915050565b6000602082840312156125c957600080fd5b60006125d784828501612314565b91505092915050565b6125e981612d2e565b82525050565b6125f881612d40565b82525050565b600061260982612c61565b6126138185612c77565b9350612623818560208601612db1565b61262c81612ed4565b840191505092915050565b600061264282612c6c565b61264c8185612c88565b935061265c818560208601612db1565b61266581612ed4565b840191505092915050565b600061267b82612c6c565b6126858185612c99565b9350612695818560208601612db1565b80840191505092915050565b60006126ae601b83612c88565b91506126b982612ee5565b602082019050919050565b60006126d1602d83612c88565b91506126dc82612f0e565b604082019050919050565b60006126f4603283612c88565b91506126ff82612f5d565b604082019050919050565b6000612717602683612c88565b915061272282612fac565b604082019050919050565b600061273a602583612c88565b915061274582612ffb565b604082019050919050565b600061275d601c83612c88565b91506127688261304a565b602082019050919050565b6000612780602483612c88565b915061278b82613073565b604082019050919050565b60006127a3601983612c88565b91506127ae826130c2565b602082019050919050565b60006127c6602983612c88565b91506127d1826130eb565b604082019050919050565b60006127e9602e83612c88565b91506127f48261313a565b604082019050919050565b600061280c602083612c88565b915061281782613189565b602082019050919050565b600061282f602083612c88565b915061283a826131b2565b602082019050919050565b6000612852601483612c88565b915061285d826131db565b602082019050919050565b6000612875601883612c88565b915061288082613204565b602082019050919050565b6000612898602183612c88565b91506128a38261322d565b604082019050919050565b60006128bb603d83612c88565b91506128c68261327c565b604082019050919050565b6128da81612d98565b82525050565b60006128ec8284612670565b915081905092915050565b60006129038285612670565b915061290f8284612670565b91508190509392505050565b600060208201905061293060008301846125e0565b92915050565b600060808201905061294b60008301876125e0565b61295860208301866125e0565b61296560408301856128d1565b818103606083015261297781846125fe565b905095945050505050565b600060208201905061299760008301846125ef565b92915050565b600060208201905081810360008301526129b78184612637565b905092915050565b600060208201905081810360008301526129d8816126a1565b9050919050565b600060208201905081810360008301526129f8816126c4565b9050919050565b60006020820190508181036000830152612a18816126e7565b9050919050565b60006020820190508181036000830152612a388161270a565b9050919050565b60006020820190508181036000830152612a588161272d565b9050919050565b60006020820190508181036000830152612a7881612750565b9050919050565b60006020820190508181036000830152612a9881612773565b9050919050565b60006020820190508181036000830152612ab881612796565b9050919050565b60006020820190508181036000830152612ad8816127b9565b9050919050565b60006020820190508181036000830152612af8816127dc565b9050919050565b60006020820190508181036000830152612b18816127ff565b9050919050565b60006020820190508181036000830152612b3881612822565b9050919050565b60006020820190508181036000830152612b5881612845565b9050919050565b60006020820190508181036000830152612b7881612868565b9050919050565b60006020820190508181036000830152612b988161288b565b9050919050565b60006020820190508181036000830152612bb8816128ae565b9050919050565b6000602082019050612bd460008301846128d1565b92915050565b6000612be4612bf5565b9050612bf08282612e16565b919050565b6000604051905090565b600067ffffffffffffffff821115612c1a57612c19612ea5565b5b612c2382612ed4565b9050602081019050919050565b600067ffffffffffffffff821115612c4b57612c4a612ea5565b5b612c5482612ed4565b9050602081019050919050565b600081519050919050565b600081519050919050565b600082825260208201905092915050565b600082825260208201905092915050565b600081905092915050565b6000612caf82612d98565b9150612cba83612d98565b9250827fffffffffffffffffffffffffffffffffffffffffffffffffffffffffffffffff03821115612cef57612cee612e47565b5b828201905092915050565b6000612d0582612d98565b9150612d1083612d98565b925082821015612d2357612d22612e47565b5b828203905092915050565b6000612d3982612d78565b9050919050565b60008115159050919050565b60007fffffffff0000000000000000000000000000000000000000000000000000000082169050919050565b600073ffffffffffffffffffffffffffffffffffffffff82169050919050565b6000819050919050565b82818337600083830152505050565b60005b83811015612dcf578082015181840152602081019050612db4565b83811115612dde576000848401525b50505050565b60006002820490506001821680612dfc57607f821691505b60208210811415612e1057612e0f612e76565b5b50919050565b612e1f82612ed4565b810181811067ffffffffffffffff82111715612e3e57612e3d612ea5565b5b80604052505050565b7f4e487b7100000000000000000000000000000000000000000000000000000000600052601160045260246000fd5b7f4e487b7100000000000000000000000000000000000000000000000000000000600052602260045260246000fd5b7f4e487b7100000000000000000000000000000000000000000000000000000000600052604160045260246000fd5b6000601f19601f8301169050919050565b7f4e65656420746f2070617920302e303565746820746f206d696e740000000000600082015250565b7f4552433732313a2063616c6c6572206973206e6f7420746f6b656e206f776e6560008201527f72206f7220617070726f76656400000000000000000000000000000000000000602082015250565b7f4552433732313a207472616e7366657220746f206e6f6e20455243373231526560008201527f63656976657220696d706c656d656e7465720000000000000000000000000000602082015250565b7f4f776e61626c653a206e6577206f776e657220697320746865207a65726f206160008201527f6464726573730000000000000000000000000000000000000000000000000000602082015250565b7f4552433732313a207472616e736665722066726f6d20696e636f72726563742060008201527f6f776e6572000000000000000000000000000000000000000000000000000000602082015250565b7f4552433732313a20746f6b656e20616c7265616479206d696e74656400000000600082015250565b7f4552433732313a207472616e7366657220746f20746865207a65726f2061646460008201527f7265737300000000000000000000000000000000000000000000000000000000602082015250565b7f4552433732313a20617070726f766520746f2063616c6c657200000000000000600082015250565b7f4552433732313a2061646472657373207a65726f206973206e6f74206120766160008201527f6c6964206f776e65720000000000000000000000000000000000000000000000602082015250565b7f45524337323155524953746f726167653a2055524920736574206f66206e6f6e60008201527f6578697374656e7420746f6b656e000000000000000000000000000000000000602082015250565b7f4552433732313a206d696e7420746f20746865207a65726f2061646472657373600082015250565b7f4f776e61626c653a2063616c6c6572206973206e6f7420746865206f776e6572600082015250565b7f4e465420616c7265616479206d696e7465642021000000000000000000000000600082015250565b7f4552433732313a20696e76616c696420746f6b656e2049440000000000000000600082015250565b7f4552433732313a20617070726f76616c20746f2063757272656e74206f776e6560008201527f7200000000000000000000000000000000000000000000000000000000000000602082015250565b7f4552433732313a20617070726f76652063616c6c6572206973206e6f7420746f60008201527f6b656e206f776e6572206f7220617070726f76656420666f7220616c6c000000602082015250565b6132d481612d2e565b81146132df57600080fd5b50565b6132eb81612d40565b81146132f657600080fd5b50565b61330281612d4c565b811461330d57600080fd5b50565b61331981612d98565b811461332457600080fd5b5056fea2646970667358221220578d8820d8aeca514560d53e4f6c4800c7209ccf37c2113444b54ce7d929220364736f6c63430008040033",
  "linkReferences": {},
  "deployedLinkReferences": {}
}